:100000000C942A000C944F000C944F000C944F0059
:100010000C944F000C944F000C944F000C944F0024
:100020000C944F000C944F000C944F000C944F0014
:100030000C944F000C944F000C944F000C944F0004
:100040000C944F000C944F000C944F000C944F00F4
:100050000C944F0011241FBECFE5D8E0DEBFCDBF0A
:0C0060000E9436000C943400F894FFCF8E
:10006C000E944500C0E0CCBF0E944A00CF5FCF3F4A
:0E007C00D1F7CCBF0E944A00C150D9F7F3CF94
:0A008A0083B7896683BFBB9A08950F
:0A00940080E89CE00197F1F7089561
:04009E000C940000BE
:00000001FF
